:03000000020CA04F
:0C0CA000787FE4F6D8FD758121020CE796
:100A6A006F6E204C4544210A006F6666204C45444F
:100A7A00210A0012011001000000083D410721006F
:100A8A00000000000109023B00020100A032090433
:100A9A0000000103010100092111010001223E00A9
:100AAA000705810308000A09040100010301020085
:100ABA000921100100012234000705820304000AFB
:100ACA0005010906A101050719E029E71500250115
:100ADA0075019508810295017508810195037501D3
:100AEA0005081901290391029505750191019506D9
:100AFA00750826FF000507190029918100C0050124
:100B0A000902A1010901A10005091901290315001A
:100B1A00250175019503810275059501810105017C
:100B2A000930093109381581257F75089503810631
:020B3A00C0C039
:100EDC004400D0000000004800BB000000000000EF
:020EEC00000004
:0A0F9B0075A15575A1AA43B11022FB
:0E001D0043D1047F027E00120F5253D1FB220A
:100DFE00C2EAE4F5E275E50075E450E5EB54FE4415
:100E0E0004F5EB75D41275ED0075EC0053EAF3752D
:100E1E00DC0275EF0075EE0AE5EA54EF4440F5EAA0
:100E2E0075D212E4F5E375D18075E22943D10175CF
:080E3E00D8FF75E107D2EA229A
:10000300780A7C007D017B017A0079BB7E007F0842
:0A00130012085F75D30853D2FC22D7
:100F060078507C007D017B017A0079D07E007F04D9
:0A0F160012085F75D50453D4FC22C5
:0300430002004672
:0D004600C0E0C0F0C083C082C0D075D008FB
:10005300900092E4F020D9030203FBE5D9543F70EA
:10006300030203CB24E0700302035614601924F146
:100073006029240E60030203F975D500E5D454FC0E
:100083004402F5D40203F975D300E5D254FC4402CB
:10009300F5D29000C57401F00203F9900092E5DBFC
:1000A300F0E064086003020328900006E09000C6B5
:1000B300F0900007E0700D9000C6E0D3947F748049
:1000C300948040069000C6747FF0900092E4F09014
:1000D3000001E09000C7F0900000E05460601A90C7
:1000E30000C7E01424FD400302032E24FB24FD403B
:1000F3000302032E80000203289000C7E0B40B0024
:10010300400302032690010FF82828730203050217
:10011300024502032602028902032602020E02019D
:100123003002032602021902023A02032E90000350
:10013300E024FE601E24E060302421706D9000D422
:1001430074FFF0A3740AF0A3747DF090009274120C
:10015300F0805D9000D474FFF0A3740AF0A3748F51
:10016300F0900092743BF08047900004E0FF7E0023
:1001730070169000D474FFF0A3740AF0A374CAF04D
:10018300900092743EF08028EF64014E701C900042
:10019300D474FFF0A3740BF0A37408F0900092746E
:1001A30034F09000D77401F0800690009274FFF051
:1001B300900092E0FF9000C6E0D39F4002EFF090E2
:1001C30000C6E0FFC394087480948040047F0880D5
:1001D30000900092EFF07E0078007C007D0190009B
:1001E300D4E0FBA3E0FAA3E0F912085F9000C6E0B5
:1001F300FF900092E0FEC3EF9E9000C6F0EEFF90EA
:1002030000D5E48FF012088502032E900002E090DF
:1002130000C6F002032E9000C3E0900000F09000AF
:10022300C6E0C3940174809480500302032E9000AF
:10023300927401F002032E900002E09000C3F002DA
:10024300032E900000E0541FFF7E006402702D9087
:100253000004E014601B2480600D147019E5D4546D
:10026300BC4402F5D48015E5D254BC4402F5D280D7
:100273000B53D273800690009274FFF0EF4E70031D
:1002830002032E020328900000E0541FFD7C00703F
:100293001E900003E0FE900002E0FBEB64014E7051
:1002A3000C900A969330E50302032E80788076ED56
:1002B30064024C704B900003E0FE900002E0FDED01
:1002C3004E703B900005E0FE900004E0FDEDFFEE74
:1002D300702AEF24FE60112481601714701EE5D488
:1002E30054BF4403F5D48043E5D4547F440CF5D480
:1002F3008039E5D254BF4403F5D2802F802780256F
:100303008023900000E4F0A3F09000C6E0FFC394C4
:10031300027480948090009240057402F0800CEF88
:10032300F08008800090009274FFF0900092E0FF4C
:10033300F4700C9000C774FFF075DCCF0203F9EF83
:100343006008900092E0F5DD800375DD0075DCC088
:100353000203F99000C7E024FB6057147062900019
:10036300C6E0FFC394087480948040047F08800033
:10037300900092EFF07E0078007C007D019000D425
:10038300E0FBA3E0FAA3E0F912085F9000C6E0FFE8
:10039300900092E0FEC3EF9E9000C6F0EEFF900047
:1003A300D5E48FF0120885900092E0F5DD63DC4020
:1003B3008044E5E35480FF9000C6E04FF5E38003FB
:1003C30075DD0075DC02802E900092E5DBF0900075
:1003D300C7E06409701D900000E060087BFF7A0AA3
:1003E300796A800C900000E070097BFF7A0A7973C8
:1003F30012049563DC80C2D930D81275DC0275D241
:100403001075D41275E300C2DAC2D9C2D830DA0942
:0C041300C2DAE5DA30E205800375D8FF9C
:0B041F00D0D0D082D083D0F0D0E032EB
:100D9B00120D2CEF64A870027F01EF64E070027FEC
:100DAB0002EF604E24FE601E047037E49000C5F025
:100DBB009000BD744BF0120003E49000BDF0900066
:100DCB00C5E060FA8019E49000C5F09000BD744E48
:100DDB00F0120003E49000BDF09000C5E060FA0251
:100DEB000003E5D254FC4402F5D2E5D454FC440292
:020DFB00F5D42D
:010DFD0022D3
:100EEE004100DF004100D9004100D8004400DA0083
:070EFE000000004100DE00CE
:100E4600C3E49DFDE49CFCEF700ACFEDCFEFF58A7D
:100E5600ECF58C22EF6401700ACFEDCFEFF58BEC49
:100E6600F58D22EF64027010CFEDCFEFF5CC8FCA6F
:080E7600ECFEEEFFF5CD8FCB81
:010E7E002251
:100F3A00C2CDC2CCD2C8C2C9EF25E025E0FFE5C9BF
:080F4A0054FD4F4401F5C922DA
:100F200053C9BFC2C9E4FDFC7F02120E4643C6018D
:0A0F3000E4FF120F3AD2CAD2AD223C
:100B3C009000DFE0146022046003020C01C3EF9408
:100B4C0010EE94274010D3EF9480EE943E50079013
:100B5C0000DF7401F022020BF7C3EF94F4EE940162
:100B6C00401ED3EF9440EE940650159000DAE0FC52
:100B7C00A3E0FDA3E0FEA3E0FF780112097C803C1A
:100B8C00C3EF9440EE94064041D3EF948CEE940A5C
:100B9C0050389000DAE0FCA3E0FDA3E0FEA3E0FFF8
:100BAC00780112097C9000DA12098F9000DAE0FCCF
:100BBC00A3E0FDA3E0FEA3E04401FFEC9000DA12F9
:100BCC00098F9000D9E004F08014E49000DFF090DD
:100BDC0000DA12099B00000000E49000D9F09000AC
:100BEC00D9E0642070149000D804F0E49000DFF099
:0B0BFC009000D9F022E49000DFF0220E
:100D2C009000D8E0640170649000DAE0FCA3E0FD70
:100D3C00A3E0FEA3E0FF7818120969EFFB9000DA3C
:100D4C00E0FCA3E0FDA3E0FEA3E0FF78101209692C
:100D5C00EFF46B70379000DAE0FCA3E0FDA3E0FE4B
:100D6C00A3E0FF7808120969EFFB9000DAA3A3A3B4
:100D7C00E0FFF46B7016CFEBCFA3EFF0E4A3F09091
:0E0D8C0000DA12099B00000000EBFF227F003E
:010D9A002236
:0D0F8E0075CDFF75CBFF75CCFF75CAFF2236
:03002B00020E7F43
:100E7F00C0E0C0F0C083C082C0D075D018C2CA30E5
:100E8F00CF0CAFCEAECF120B3C120F8EC2CF30CFE6
:100E9F0002C2CFD2CAD0D0D082D083D0F0D0E0322D
:100EAF0012002E7F057E00120F52120FA5120DFE9B
:100EBF00120F20D2AFE4F5D3F5D59000C5F0900016
:0D0ECF00D7F09000D7E060FA120D9B80F57F
:10002E0075A15575A1AAE5B954F84404F5B9E4F5DE
:02003E00A122FD
:0E0F8000EF4E600905A1EF1F70F61E80F322F0
:100F5200AD07AC06ED4C600E7FE87E03120F80ED0C
:070F62001D70F11C80EE225E
:040FD70043C61022DB
:100C0700C29FD29EC29DC2CDC2CC4387809000E0D6
:100C170012099B00000082E47B0AFAF9F89000E0D1
:100C2700E0FCA3E0FDA3E0FEA3E0FF1208D79000DD
:100C3700E4EBF09000E0E0FCA3E0FDA3E0FEA3E01E
:100C4700FFE47B0AFAF9F81208D79000E012098F3F
:100C57009000E4E0C3940574809480401F9000E006
:100C6700E0FCA3E0FDA3E0FEA3E02401FFE43EFED9
:100C7700E43DFDE43CFC9000E012098FE589540F48
:100C87004420F58943C9A09000E0A3A3A3E0F4049E
:080C9700F58DD28ED299D29C9A
:010C9F002232
:080FAF003098FDC298AF9922B1
:080FB7008F993099FDC29922C7
:0A0FA500C2C7D2C5D2C475C2F32240
:080FBF008FC130C1FDC2C12247
:080FC70030C0FDC2C0AFC12221
:080FCF008FC130C1FDC2C12237
:100F690075A15575A1AAEF600543B101800353B17D
:070F7900FEE4F5A1F5FF22E3
:030040008FFF220D
:100CAC00020EAFE493A3F8E493A34003F68001F2A1
:100CBC0008DFF48029E493A3F85407240CC8C33349
:100CCC00C4540F4420C8834004F456800146F6DF18
:100CDC00E4800B0102040810204080900EDCE47EBE
:100CEC00019360BCA3FF543F30E509541FFEE4930D
:100CFC00A360010ECF54C025E060A840B8E493A3D4
:100D0C00FAE493A3F8E493A3C8C582C8CAC583CAFE
:100D1C00F0A3C8C582C8CAC583CADFE9DEE780BEB6
:010F050000EB
:10078F00E709F608DFFA8046E709F208DFFA803E4C
:10079F0088828C83E709F0A3DFFA8032E309F60839
:1007AF00DFFA8078E309F208DFFA807088828C83A1
:1007BF00E309F0A3DFFA806489828A83E0A3F60855
:1007CF00DFFA805889828A83E0A3F208DFFA804C2F
:1007DF0080D280FA80C680D4806980F28033801006
:1007EF0080A680EA809A80A880DA80E280CA80336F
:1007FF0089828A83ECFAE493A3C8C582C8CCC583E7
:10080F00CCF0A3C8C582C8CCC583CCDFE9DEE780B6
:10081F000D89828A83E493A3F608DFF9ECFAA9F035
:10082F00EDFB2289828A83ECFAE0A3C8C582C8CC8B
:10083F00C583CCF0A3C8C582C8CCC583CCDFEADEA4
:10084F00E880DB89828A83E493A3F208DFF980CC06
:10085F0088F0EF60010E4E60C388F0ED2402B404FF
:10086F000050B9F582EB2402B4040050AF232345A6
:06087F0082239007DF73E5
:10088500C5F0F8A3E028F0C5F0F8E58215827002FE
:060895001583E038F0229B
:10089B0075F008758200EF2FFFEE33FECD33CDCC14
:1008AB0033CCC58233C5829BED9AEC99E582984097
:1008BB000CF582EE9BFEED9AFDEC99FC0FD5F0D674
:1008CB00E4CEFBE4CDFAE4CCF9A88222B800C1B99E
:1008DB000059BA002DEC8BF084CFCECDFCE5F0CBDC
:1008EB00F97818EF2FFFEE33FEED33FDEC33FCEB15
:1008FB0033FB10D703994004EB99FB0FD8E5E4F9D0
:10090B00FA227818EF2FFFEE33FEED33FDEC33FCBC
:10091B00C933C910D7059BE99A4007EC9BFCE99AB0
:10092B00F90FD8E0E4C9FAE4CCFB2275F010EF2FF5
:10093B00FFEE33FEED33FDCC33CCC833C810D707F5
:10094B009BEC9AE899400AED9BFDEC9AFCE899F830
:0E095B000FD5F0DAE4CDFBE4CCFAE4C8F922C3
:10096900E8600FECC313FCED13FDEE13FEEF13FF6C
:03097900D8F12290
:10097C00E8600FEFC333FFEE33FEED33FDEC33FCD9
:03098C00D8F1227D
:0C098F00ECF0A3EDF0A3EEF0A3EFF022DB
:10099B00A8828583F0D083D0821209B21209B212D9
:1009AB0009B21209B2E473E493A3C583C5F0C583FE
:1009BB00C8C582C8F0A3C583C5F0C583C8C582C8A6
:0109CB002209
:10042A00E5102496F582E43400F583E00510229065
:10043A000093300703900096E475F001120A240233
:10044A0009CC2000E97F2ED2008018EF540F2490A7
:10045A00D43440D4FF30040BEF24BFB41A00500345
:10046A002461FFE511600215110514E514700205F7
:10047A001330070E900093E475F001120A24EF027C
:10048A000A12020FBF7403D2078003E4C207F510F1
:10049A00900093120A3BE4F511F513F514E5116087
:1004AA00077F2012046D80F57512FFC201C200C2D7
:1004BA0002C203C205C206C208120439FF700D3017
:1004CA0007057F0012047EAF14AE1322B4255FC263
:1004DA00D5C204120439FF24D0B40A00501A75F0A8
:1004EA000A781130D50508B6FF0106C6A426F620FB
:1004FA00D5047002D20380D924CFB41A00EF500475
:10050A00C2E5D20402067FD20180C6D20080C0D2E0
:10051A000280BCD2D580BAD20580B47F2012046D85
:10052A002002077401B5110040F112042AFF1204D7
:10053A006D0204A7D208D206809512042AFB12047F
:10054A002AFA12042AF94A4B700679507A077BFF75
:10055A0020022EE511602A7E008E82758300120920
:10056A00E560060EEE651270F0C2D5EBC0E0EAC097
:10057A00E0E9C0E0EE1206C6D0E0F9D0E0FAD0E039
:10058A00FB1209CCFF60AAEBC0E0EAC0E0E9C0E0D8
:10059A0012046DD0E02401F9D0E03400FAD0E0FB77
:1005AA00E5120460DCD512D980877BFF7A0679C20E
:1005BA00D202809C791080027908C206C20880089B
:1005CA00D2D5790A8004790AC2D5E512047002F5F7
:1005DA0012E4FAFDFEFF12042AFC7B082001131222
:1005EA00042AFD7B1030000A12042AFE12042AFF94
:1005FA007B20EC3382D592D55013C3E43000069F9A
:10060A00FFE49EFEE42001039DFDE49CFCE4CBF89C
:10061A00C201EC700CCFCECDCCE824F8F870F38090
:10062A0017C3EF33FFEE33FEED33FDEC33FCEB3350
:10063A00FB994002FB0FD8E9EB300105F8D0E0C482
:10064A0048B201C0E00AEC4D4E4F78207B0070C2E0
:10065A00EAB5120040BCC0E01206C8D0F0D0E020D3
:10066A000104C4C0E0C4B201C0F0120456D0F0D5EF
:10067A00F0EB0204A7120A4405445305BE580515B7
:10068A004C05114205C24F05CA4405CA49052A4309
:08069A0005D05505B44605B476
:1006A2004505B44707705005192D051D2E05402B31
:1006B200052123053E2007592A04D94800000538A0
:1006C2003F3F3F00790AA2D5200314300509B91033
:1006D200020404B9080104A2D52006025001042034
:1006E20002689202B511005034C0E07F2030031935
:1006F2007F30A20272067205500F12071FC202C299
:1007020006C205C2087F30800F300503E9C0E0123F
:10071200046D300503D0E0F9D0E0B511CC300517F7
:100722007F30B9100C12046D7F583004077F788037
:1007320003B9080312046D3002057F2D02046D7F98
:10074200202008F87F2B2006F322920280CF286E09
:10075200756C6C2900D20112042A3001F8C20178AA
:100762001130D50108F60204D92D5043495812041C
:100772002A2403B405004001E490076B9312045E3F
:0D078200743A12045ED2037511040205BE24
:1009CC00BB010689828A83E0225002E722BBFE0229
:0909DC00E32289828A83E493225C
:1009E500BB010CE58229F582E5833AF583E02250C7
:1009F50006E92582F8E622BBFE06E92582F8E22211
:0D0A0500E58229F582E5833AF583E493222A
:100A1200BB010689828A83F0225002F722BBFE01C3
:020A2200F322BD
:100A2400F8E0FBA3A3E0F925F0F0E582158270025B
:070A34001583E0FA38F022FF
:090A3B00EBF0A3EAF0A3E9F022BC
:100A4400D083D082F8E4937012740193700DA3A341
:100A540093F8740193F5828883E473740293686055
:060A6400EFA3A3A380DF55
:00000001FF
